:101025002057656C636F6D6520546F20557365207F
:1010350000456C656374726F6E6963205363616C00
:101045006500546865205765696768743A202020F3
:10105500202000202020202020202020302E30306D
:0B106500306B67002D2D2E2D2D2D006F
:1010B400043C000003E8044000000000042B00008E
:1010C400000004330000000004370000000002297F
:0B10D4000000012300C100C101C102A7
:0C127200C2AF53E71843E70143E78022B6
:0912890053E77FE4F5E6D2AF2241
:0B127E0012127275E64675E6B90022F8
:1011BF00AD07AC06C2AF8CE3EDF5E453E5F843E5BC
:0C11CF000112127E121289D2AFAFE22290
:10122500EE54FEFEF5E3E4F5E453E5F843E5031279
:05123500127E02128987
:1011DB00AB07AA06C2AF8AE3EBF5E453E5F843E5A8
:0C11EB00028DE212127E121289D2AF2295
:101134007F007E20121225752F00852530AD307E6C
:10114400201211DBE524F530752F00AD300F12119C
:08115400DBAD287F600211DB16
:10115C007F017E201211BF7524008F257F00121194
:10116C00BFEFFDE525F524EDF5257F601211BF8F4E
:02117C00282227
:10120F0012115CE5286401600C75240D7525AC7511
:06121F0028011211342227
:100D00007FC812123AE47B107A27F9F8AF3AAE396D
:100D1000AD38AC37121070EC4D4E4F70047F208010
:100D200016E47B107A27F9F8AF3AAE39AD38AC3714
:100D3000121070EF2430FF12124FE47B107A27F963
:100D4000F8AF3AAE39AD38AC37121070AC00AD0127
:100D5000AE02AF03E47BE87A03F9F8121070EF24D7
:100D600030FF12124F7F2E12124FE47BE87A03F904
:100D7000F8AF3AAE39AD38AC37121070AC00AD01F7
:100D8000AE02AF03E47B64FAF9F8121070EF24307E
:100D9000FF12124FE47B64FAF9F8AF3AAE39AD387E
:100DA000AC37121070AC00AD01AE02AF03E47B0AA9
:100DB000FAF9F8121070EF2430FF12124FE47B0A98
:100DC000FAF9F8AF3AAE39AD38AC37121070EB24FF
:050DD00030FF02124F8C
:0E126400D2A9758901758AB0758C3CD28C2296
:03000B0002117E61
:04117E00C0E0C0D03D
:10118200758AB0758C3C0508C3E508940A7480948E
:08119200804005D20075080041
:05119A00D0D0D0E032CE
:100ADD0020B1317F057E001210EA20B127E52A45AD
:100AED00297008853929853A2A8005E4F529F52AE2
:100AFD00E4F521F5227F32FE1210EA7521007522F0
:100B0D000130B1FD20B07C7F057E001210EA20B0CF
:100B1D007220B0410523C3E5239464748094804012
:100B2D002FE4F52320B029C3E5259410E52494275F
:100B3D00500B740A2525F525E43524F524E4F5211B
:100B4D00F5227F0AFE1210EA1210E0120C1480D466
:100B5D001210E680BCE5236027E4F523C3E5259458
:100B6D0010E524942750080525E52570020524E499
:100B7D00F521F5227F32FE1210EA75210075220152
:100B8D0012113430B203020C137F057E001210EAED
:100B9D0020B27320B2420523C3E52394647480947C
:100BAD00804030E4F52320B22AD3E5259401E524D5
:100BBD009400400C74F62525F52574FF3524F52495
:100BCD00E4F521F5227F0AFE1210EA1210E0120C54
:100BDD001480D31210E680BBE5236027E4F523D300
:100BED00E5259401E52494004008E52515257002BE
:100BFD001524E4F521F5227F32FE1210EA7521004D
:070C0D0075220112113422CF
:100DD500C2A0C2A2C2A175260075270112120F1268
:100DE50011F7C2AF121264D2AF7F8012123A7BFFA5
:100DF5007A10792512110A7FC012123A7BFF7A10F8
:100E0500793612110A120E837F8012123A7BFF7A0D
:100E150010794712110A7FC012123A7BFF7A1079B6
:100E25005812110A300005120C14C200120ADD20F6
:100E3500B310E4F526F527D2A27FB87E0B1210EA8F
:100E4500C2A2AF3FAE3EAD3DAC3CAB3AAA39A938E4
:100E5500A837C3120AA340CCE527452670C6052747
:100E6500E52770020526D2A07FB87E0B1210EAC2D4
:0E0E7500A0D2A17F887E131210EAC2A180A62F
:100C1400120FB48F3A8E398D388C37C3E53A952E3E
:100C2400F53AE539952DF539E538952CF538E5375C
:100C3400952BF537E47F0AFEFDFCAB3AAA39A938B7
:100C4400A837120978EC1208A0C004C005C006C079
:100C540007AC24AD25E41208A5A804A905AA06AB8F
:100C640007D007D006D005D0041208031208DEC34B
:100C7400EF952AFFEE9529FEE48F3A8E39F538F583
:100C8400377F107E27FDFCAB3AAA39A938A837C3B1
:100C9400120AA34030E522452170047F0180027FBF
:100CA400007521008F22E532453170047F018002F6
:100CB4007F007531008F327FC812123A7BFF7A10A1
:100CC400796902110AAF3AAE39AD38AC37EC4D4E02
:100CD4004F7006F531F5328019E4FFFEFDFCAB3AA6
:100CE400AA39A938A837D3120AA34006753100756A
:0C0CF4003201752100752201120D002252
:100E8300120FB48F368E358D348C33E4F509C3E5F8
:100E930009940A748094805022752100752201E41C
:100EA300F531F5327F64FE1210EA753100753201B7
:100EB3007F647E001210EA050980D3120FB48F2ECF
:100EC3008E2D8D2C8C2BAE24AF25AB07AA06E4F90F
:100ED300F8AF36AE35AD34AC33120A03C004C005E7
:100EE300C006C007AE24AF25AB07AA06E4F9F8AFE6
:100EF3002EAE2DAD2CAC2B120A03A804A905AA060D
:100F0300AB07D007D006D005D004C3120AB96003DB
:100F1300020E83F521F5227FF47E011210EA75217A
:040F23000075220132
:010F270022A7
:0A10E0007521007522017F0A7E00D1
:1010EA00E4FDFCC3ED9FEC9E5015E4FBFA0BBB003C
:0F10FA00010AEB64794A70F50DBD00010C80E42A
:0111090022C3
:10119F00E4FDFCC3ED9FEC9E5015E4FBFA0BBB0086
:0F11AF00010AEB647B4A70F50DBD00010C80E472
:0111BE00220E
:10123A00A907C2A67F017E0012119FD2A789801238
:05124A00119FC2A72264
:10124F00A907D2A67F017E0012119F8980D2A71213
:05125F00119FC2A7224F
:10110A008B098A0A890BAB09AA0AA90B12095FFF84
:10111A00D3940074809480401012124F7401250BEE
:0A112A00F50BE4350AF50A80DD221A
:1011F700C2A7C2A57F3812123A7F0C12123A7F0695
:0812070012123A7F0102123AB3
:0312920000002237
:100FB400D296121292C297E4F50DF50CF50BF50AD0
:100FC4002096FDE4FBEBC39418748094805030D2D7
:100FD40097AF0DAE0CAD0BAC0A7801120ACA8F0D97
:100FE4008E0C8D0B8C0AC297309611EF2401F50DEF
:100FF400E43EF50CE43DF50BE43CF50A0B80C6D267
:1010040097E50DF50DE50CF50CE50B6480F50BE5A6
:101014000AF50A121292C297AF0DAE0CAD0BAC0AD0
:0110240022A9
:10080000020954EC5D046005E85904700302094ACA
:10081000120915580460F6EC4860F2EC7004FDFE15
:10082000FF22C860DB2481C85009C39860025006CB
:100830000209519850CAF582E9294B4A7005AB82EA
:1008400002094075F0007C1A7880C3EF9BEE9AEDA8
:1008500099400DC3EF9BFFEE9AFEED99FDE842F043
:10086000DC23ACF0D0E0FFD0E0FED0E0FDAB822096
:10087000E7101BEB60BAEC2CFCEF33FFEE33FEED20
:1008800033FD02092CE803F830E705C0F075F000ED
:10089000EF2FFFEE33FEED33FD40B830E7C280AA04
:1008A00075F020800E75F010800575F0087D007ED3
:1008B000007F003392D530D503120A95EC334010F7
:1008C000EF33FFEE33FEED33FDEC33FCD5F0ED22DC
:0E08D000E5F0247EA2D513CC92E7CDCEFF2218
:1008DE00EDD2E7CD33EC3392D524814006E4FFFE12
:1008EE00FDFC22FCE4CFCECDCC24E0501174FF8071
:1008FE00EDC3CC13CCCD13CDCE13CECF13CF04700E
:07090E00F030D5DE020A956E
:10091500E9D2E7C933E833F892D5EDD2E7CD33EC28
:0709250033FC5002B2D522A1
:10092C00EC30E7100FBF000C0EBE00080DBD00042C
:10093C000BEB6014A2D5EB13FCED92E7FD2274FFD8
:10094C00FCFDFEFF22E480F8A2D574FF13FC7D8031
:03095C00E480EF45
:03000000020F28C4
:0C0F2800787FE4F6D8FD758143020F6F5E
:10095F00BB010689828A83E0225002E722BBFE0296
:09096F00E32289828A83E49322C9
:10097800E88FF0A4CC8BF0A42CFCE98EF0A42CFC1E
:100988008AF0EDA42CFCEA8EF0A4CDA8F08BF0A49C
:100998002DCC3825F0FDE98FF0A42CCD35F0FCEBFB
:1009A8008EF0A4FEA9F0EB8FF0A4CFC5F02ECD39C0
:0F09B800FEE43CFCEAA42DCE35F0FDE43CFC222D
:1009C70075F008758200EF2FFFEE33FECD33CDCCE7
:1009D70033CCC58233C5829BED9AEC99E58298406A
:1009E7000CF582EE9BFEED9AFDEC99FC0FD5F0D647
:1009F700E4CEFBE4CDFAE4CCF9A88222B800C1B971
:100A07000059BA002DEC8BF084CFCECDFCE5F0CBAE
:100A1700F97818EF2FFFEE33FEED33FDEC33FCEBE7
:100A270033FB10D703994004EB99FB0FD8E5E4F9A2
:100A3700FA227818EF2FFFEE33FEED33FDEC33FC8F
:100A4700C933C910D7059BE99A4007EC9BFCE99A83
:100A5700F90FD8E0E4C9FAE4CCFB2275F010EF2FC8
:100A6700FFEE33FEED33FDCC33CCC833C810D707C8
:100A77009BEC9AE899400AED9BFDEC9AFCE899F803
:0E0A87000FD5F0DAE4CDFBE4CCFAE4C8F92296
:10107000C2D5E830E70FB2D5E4C39BFBE49AFAE4AB
:1010800099F9E498F8EC30E717B2D51210A6120AD5
:1010900003E4C39BFBE49AFAE499F9E498F880032B
:1010A000120A0330D50DE4C39FFFE49EFEE49DFDCC
:0410B000E49CFC229E
:0E0A9500C3E49FFFE49EFEE49DFDE49CFC2272
:100AA300EB9FF5F0EA9E42F0E99D42F0EC6480C8CA
:060AB30064809845F0226A
:100AB900EB9FF5F0EA9E42F0E99D42F0E89C45F093
:010AC900220A
:100ACA00E8600FEFC333FFEE33FEED33FDEC33FC8A
:030ADA00D8F1222E
:100F3400020DD5E493A3F8E493A34003F68001F2F1
:100F440008DFF48029E493A3F85407240CC8C333BE
:100F5400C4540F4420C8834004F456800146F6DF8D
:100F6400E4800B01020408102040809010B4E47E59
:100F7400019360BCA3FF543F30E509541FFEE49382
:100F8400A360010ECF54C025E060A840B8E493A349
:100F9400FAE493A3F8E493A3C8C582C8CAC583CA74
:100FA400F0A3C8C582C8CAC583CADFE9DEE780BE2C
:0110DF000010
:00000001FF
